:100000000C94A3000C94C4000C94C4000C94C40081
:100010000C94C4000C94A7020C9482020C94C400AB
:100020000C94C4000C94C4000C94C4000C94C40040
:100030000C94C4000C94C4000C94C4000C94C40030
:100040000C94C4000C94C4000C94C4000C94C40020
:100050000C94C4000C94C4000C94C4000C94C40010
:100060000C94C4000C94C4000C94C4000C94C40000
:100070000C94C4000C94C4000C94C4000C94C400F0
:100080000C94C4000C94C4000C94C4000C94C400E0
:100090000C94C4000C94C4000C94C4000C94C400D0
:1000A0000C94C4000C94C4000C94C4000C94C400C0
:1000B0000C94C4000C94C4000C94C4000C94C400B0
:1000C0000C94C4000C94C4000C94C4000C94C400A0
:1000D0000C94C4000C94C4000C94C4000C94C40090
:1000E0000C94C400D805D805D805D805D805D8057E
:1000F000D805A005A305A605D805A905AC05AF053B
:10010000D805D805D805D805D805D805D805B2052D
:10011000B505B805D805BB05BE05C105D805D80588
:10012000D805D805D805D805D805C405C705CA051A
:10013000D805CD05D005D305D805D805D805D805EF
:10014000D805D805D80511241FBECFEFD1E2DEBFF8
:10015000CDBF00E00CBF13E0A0E0B2E0EAE6F9E1B9
:1001600000E00BBF02C007900D92A03AB107D9F78B
:1001700013E0A0EAB3E001C01D92A83CB107E1F78B
:100180000E94DA050C94B30C0C94000086E69EE005
:10019000FC013197F1F74098419840E348B9429A01
:1001A00020E038E4F9013197F1F74298FC013197EA
:1001B000F1F74098419848B9429AF9013197F1F71F
:1001C0004298FC013197F1F74098419848B9429A1A
:1001D000F9013197F1F742980197F1F7409841986A
:1001E00080E288B9429AC9010197F1F742980895CF
:1001F00098B19F7098B928B1982F907F922B98B999
:1002000040984198429A20E038E4F9013197F1F79B
:10021000429898B19F7098B998B18295807F982B39
:1002200098B940984198429AC9010197F1F74298CC
:1002300008950E94C60086E69EE00197F1F788E2E5
:100240000E94F80081E00E94F80086E00E94F80019
:100250008EE00E94F80080E80E94F800089598B1AE
:100260009F7098B928B1982F907F922B98B9409A97
:100270004198429A20E038E4F9013197F1F7429829
:1002800098B19F7098B998B18295807F982B98B952
:10029000409A4198429AC9010197F1F7429808950E
:1002A00080E80E94F8000895CF93DF93EC0103C02B
:1002B0000E942F01219688818823D1F7DF91CF9169
:1002C0000895823069F0833018F48130A9F405C0B4
:1002D000833049F0843081F40BC0862F815805C0EB
:1002E000862F815402C0862F8D560E94F8000895F3
:1002F000862F8D520E94F80008950F931F93CF937D
:10030000DF938A01E901882311F0662319F40E9422
:10031000500102C00E946101C530D10571F4C801CD
:1003200060E177E20E94680CCB01C0969093B50320
:100330008093B4030E942F0105C0C430D10511F091
:1003400080E016C0C80168EE73E00E94680CCB0123
:100350006093B6039093B7036AE070E00E94680C64
:10036000C0969093C5038093C4030E942F0181E03F
:10037000C330D10521F0813011F080E016C0C801F2
:1003800064E670E00E94680CCB016093B603909322
:10039000B7036AE070E00E94680CC0969093BE03B9
:1003A0008093BD030E942F0181E0C230D10521F06E
:1003B000813011F080E016C0C8016AE070E00E9450
:1003C000680CCB016093B6039093B7036AE070E0CA
:1003D0000E94680CC0969093BA038093B9030E9460
:1003E0002F0181E0C130D10511F0813061F4C801E5
:1003F0006AE070E00E94680CC0969093C3038093FB
:10040000C2030E942F0126971CF085E40E942F0151
:10041000DF91CF911F910F910895E1ECF0E01082F0
:100420001092C00086E08093C2008FE58093C400E4
:100430001092C50088E9808308953B9A43980895F7
:1004400086B1886088B9089586B1877F88B9089594
:1004500087B1876F87B988B1807888B9089510BA55
:1004600011BA1092070110920801089581B18F60AE
:1004700081B982B1807F82B9EAE0F1E08081886150
:100480008083EBE0F1E080818861808308956C983F
:10049000749A08956D98759A089587B1876F87B992
:1004A00088B1807888B910BA11BA109207011092F9
:1004B000080181B18F6081B982B1807F82B9EAE0A1
:1004C000F1E0808188618083EBE0F1E080818861E8
:1004D00080833B9A43986C98749A6D98759A0895A6
:1004E000F894EAE6F0E0808182608083EC9A789468
:1004F0000895F894EAE6F0E0808188608083ED9AC0
:10050000789408951F920F920FB60F9211248F9333
:100510009F93AF93BF938091AA039091AB03A09157
:10052000AC03B091AD030196A11DB11D8093AA0348
:100530009093AB03A093AC03B093AD03BF91AF9185
:100540009F918F910F900FBE0F901F9018951F9243
:100550000F920FB60F9211248F939F93AF93BF9377
:100560008091A6039091A703A091A803B091A9033D
:100570000196A11DB11D8093A6039093A703A0939C
:10058000A803B093A903BF91AF919F918F910F9052
:100590000FBE0F901F901895E1E2F1E010829FEFDF
:1005A0009093250181E0809324011092290190937A
:1005B000280110922B0190932A0110922D01909303
:1005C0002C0189EA809320018BE08083089584B117
:1005D0008F6384B985B185B9089583B190E008959A
:1005E000EAE7F0E0108210927B0080E280937C00CA
:1005F00080E880BF86E880830895982F883018F0BF
:1006000088E080937B009770906290937C0080914B
:100610007A00806480937A0080917A0084FFFCCF16
:100620008091790090917A00906190937A00109275
:100630007B0008950F931F93182F062F842F0E947D
:10064000FD02482F8093B803812F602F50E023E0F4
:1006500030E00E947D011F910F9108958093280141
:1006600060932A01089592B1907F8F70892B82B98F
:10067000089582B1807F866082B9089582B1807FBB
:1006800082B9089582B1807F896082B9089582B16C
:10069000807F8A6082B9089582B1807F856082B947
:1006A000089582B1807F846082B9089582B1807F8D
:1006B000826082B9089582B1807F816082B9089595
:1006C00082B1807F886082B90895EF92FF920F9384
:1006D0001F93A0E0B0E0BC01CD010E94FA0928E41C
:1006E00031EE42E850E40E94CA080E94F4067B0101
:1006F00000E010E01092AA031092AB031092AC033A
:100700001092AD031092A6031092A7031092A803B3
:100710001092A9038091AA039091AB03A091AC031E
:10072000B091AD032091A6033091A7034091A80397
:100730005091A9038E159F05A007B10728F42E1527
:100740003F054007510730F31F910F91FF90EF9045
:100750000895A0E0B0E0BC01CD010E94FA0925EEA9
:1007600030ED4AEA50E40E94CA080E94F4069B0158
:10077000AC011092AA031092AB031092AC0310923A
:10078000AD038091AA039091AB03A091AC03B0910B
:10079000AD03281739074A075B0798F782B1807FB6
:1007A00082B9089522B1207F266022B90E94A90350
:1007B000089522B1207F296022B90E94A9030895DB
:1007C00022B1207F256022B90E946503089522B1DD
:1007D000207F2A6022B90E946503089522B1207FFC
:1007E000246022B9880F991F0E946503089522B1E1
:1007F000207F226022B9880F991F0E946503089507
:10080000F8940E944D02EAE7F0E0108210927B001B
:1008100080E280937C0080E880BF86E88083E1E20C
:10082000F1E010829FEF9093250181E080932401F5
:10083000109229019093280110922B0190932A0184
:1008400010922D0190932C0189EA809320018BE076
:100850008083E1ECF0E010821092C00086E080938B
:10086000C2008FE58093C4001092C50088E98083A0
:10087000F894EAE6F0E0808182608083EC9A7894D4
:10088000F894EAE6F0E0808188608083ED9A7894BD
:100890007894089583E00E94FD028093A10382E092
:1008A0000E94FD028093A20381E00E94FD028093DA
:1008B000A30308959091A203913260F08091A10367
:1008C000803240F48091A303803220F484EB809343
:1008D00028010AC08091A103813248F0903238F497
:1008E00089E68093280189EB80932A0108958091FD
:1008F000A303813240F0903230F489EB80932801D9
:1009000089E680932A0108958091A103813220F421
:100910008091A3038132F8F08091A2038132D8F054
:1009200086B1886088B988E893E120E731E0F90171
:100930003197F1F70197D9F786B1877F88B988E8B1
:1009400093E120E731E0F9013197F1F70197D9F709
:1009500021E030E002C020E030E0C901089582E3E8
:1009600090E00E94D20382B1807F82B982B1807F01
:10097000856082B980ED97E020E731E0F901319799
:10098000F1F70197D9F70E944A0406C00E944A0471
:1009900082B1807F856082B98091A1038034B0F3F9
:1009A00082B1807F82B980ED97E020E731E0F901E4
:1009B0003197F1F70197D9F70E944A0482B1807FFD
:1009C000866082B9089582E390E00E94D20382B1EA
:1009D000807F82B982B1807F8A6082B980ED97E0A2
:1009E00020E731E0F9013197F1F70197D9F70E943B
:1009F0004A0406C00E944A0482B1807F8A6082B99C
:100A00008091A3038034B0F382B1807F82B980EDFE
:100A100097E020E731E0F9013197F1F70197D9F735
:100A20000E944A0482B1807F866082B90895833132
:100A3000910509F446C08431910524F4419709F0E9
:100A400071C007C08431910531F1499709F06AC03E
:100A500066C080919602909197028531910531F49C
:100A60008091C6039091C703019607C0469771F421
:100A70008091C6039091C70301979093C703809319
:100A8000C60304C00E944A040E945A040E948404BF
:100A9000892BC1F7089581E090E09093AF03809394
:100AA000AE0380919602909197028531910581F174
:100AB0008731910541F188319105F9F0469791F51B
:100AC0000DC081E090E09093B1038093B0038091DA
:100AD0009602909197028531910561F48091BB0354
:100AE0009091BC0301969093BC038093BB0387E174
:100AF00090E010C08731910519F486E190E00AC0BA
:100B00008831910519F485E190E004C0469751F4CD
:100B100088E190E09093970280939602089582B1C5
:100B2000807F82B908959C01FC0181339105F0F525
:100B3000EE58FF4FEE0FFF1F0590F491E02D199432
:100B40002DE030E035C02CE030E032C02BE030E06A
:100B50002FC029E030E02CC028E030E029C027E099
:100B600030E026C02BE130E023C02AE130E020C095
:100B700029E130E01DC027E130E01AC026E130E075
:100B800017C025E130E014C029E230E011C028E2AE
:100B900030E00EC027E230E00BC025E230E008C0B4
:100BA00024E230E005C023E230E002C02FEF3FEF47
:100BB000C9010895FF920F931F930E9400040E94A1
:100BC000C6000E94190184B18F6384B985B185B9CB
:100BD00082B1807F866082B986E980932801809304
:100BE0002A015FEAF52E14E60AEA83B190E0009745
:100BF00039F581E061E00E94610180E092E00E94AD
:100C0000540182E061E00E9461018091C6039091ED
:100C1000C7030E94540182E065E00E946101809157
:100C2000BB039091BC030E9454019091C603909322
:100C3000C6008091BB038093C6009093C60055C048
:100C40008038910531F581E061E00E94610182E127
:100C500092E00E94540182E061E00E946101809173
:100C6000C6039091C7030E94540182E065E00E9490
:100C700061018091BB039091BC030E94540180915B
:100C80009602909197028531910599F14697C9F5A1
:100C900026C080349105A9F581E061E00E946101E0
:100CA00083E292E00E94540182E061E00E946101CF
:100CB0008091C6039091C7030E94540182E065E0D1
:100CC0000E9461018091BB039091BC030E9454017A
:100CD00080919602909197028531910541F480911F
:100CE000C6038093C6008091BB038F5F08C0469700
:100CF00041F48091C6038093C6008091BB0380932A
:100D0000C6000E944A040E945A040E948404892B4F
:100D1000A9F00E944A042091A4033091A503F9018F
:100D2000EE0FFF1FEC5CFD4F808191812F5F3F4FE5
:100D30003093A5032093A4030E9417058091AE036E
:100D40009091AF030197E9F487E190E00E94D2030C
:100D500082B1807F82B9F0922801F0922A0185E564
:100D600090E00E94E0030E944A0482B1807F866086
:100D700082B91093280110932A011092AF031092A8
:100D8000AE038091B0039091B103019709F02DCF8C
:100D900086E190E00E94D20382B1807F82B9009305
:100DA000280100932A0188E290E00E94E7030E9454
:100DB0004A0406C00E944A0482B1807F8A6082B9D8
:100DC0008091A3038034B0F382B1807F82B982B175
:100DD000807F866082B91093280110932A011092B7
:100DE000B1031092B00301CFEF92FF920F931F93C4
:100DF0007B018C0120E030E040E05FE40E94760956
:100E000088238CF0C801B70120E030E040E05FE4C7
:100E10000E946C080E94A6099B01AC012050304042
:100E20004040504806C0C801B7010E94A6099B0176
:100E3000AC01B901CA011F910F91FF90EF90089585
:100E4000A0E0B0E0E6E2F7E00C947C0CDC012B01C2
:100E5000FA019C91923008F439C1EB01888182300B
:100E600008F433C1943069F4843009F02FC111962D
:100E70009C9111978981981709F428C1A8E9B2E0DB
:100E800025C1843009F421C18230A9F4923009F0DF
:100E90001DC19A01AD0188E0EA010990AE01E901A6
:100EA00009929E018150C1F7E201898111969C91BE
:100EB0008923818308C1923009F407C112962D90CD
:100EC0003C901397EB018A819B811496AD90BD9065
:100ED000CD90DC901797EC80FD800E811F819101F1
:100EE000281B390BB90137FF04C066277727621B1F
:100EF000730B603271050CF061C0121613066CF5AD
:100F000037014801062E04C096948794779467941D
:100F10000A94D2F721E030E040E050E004C0220F14
:100F2000331F441F551F6A95D2F72150304040406F
:100F300050402E213F2140235123211531054105E9
:100F4000510521F021E030E040E050E079018A01D4
:100F5000E628F728082919293CC0232BD1F1260EB1
:100F6000371E35014601062E04C096948794779467
:100F700067940A94D2F721E030E040E050E004C0EA
:100F8000220F331F441F551F6A95D2F7215030405E
:100F9000404050402A213B214C215D212115310543
:100FA0004105510521F021E030E040E050E05901D9
:100FB0006A01A628B728C828D9280BC0821593052E
:100FC0002CF01C01AA24BB24650103C0EE24FF24DD
:100FD000870111969C91D20111968C91981709F472
:100FE00045C0992339F0A80197012A193B094C09FA
:100FF0005D0906C0A60195012E193F09400B510B52
:1010000057FD08C0118233822282248335834683B0
:1010100057831DC081E081833382228288279927EC
:10102000DC01821B930BA40BB50B84839583A683F1
:10103000B7830DC0220F331F441F551F24833583F0
:10104000468357838281938101979383828324818E
:10105000358146815781DA01C9010197A109B1099A
:101060008F5F9F4FAF4FBF4328F30BC091833382F5
:101070002282EA0CFB1C0C1D1D1DE482F5820683F6
:10108000178383E08083248135814681578157FF10
:101090001AC0C901AA2797FDA095BA2F8170907038
:1010A000A070B0705695479537952795822B932B56
:1010B000A42BB52B84839583A683B78382819381E8
:1010C000019693838283DF0101C0D201CD01CDB7A8
:1010D000DEB7E2E10C94980CA0E2B0E0E2E7F8E0C1
:1010E0000C94880C69837A838B839C832D833E8345
:1010F0004F835887E9E0EE2EF12CEC0EFD1ECE0159
:101100000196B7010E94970B8E010F5E1F4FCE0113
:101110000596B8010E94970B8A8991E089278A8BEE
:10112000C701B801AE01475E5F4F0E9420070E94D1
:10113000C20AA096E6E00C94A40CA0E2B0E0E3EAB8
:10114000F8E00C94880C69837A838B839C832D83CD
:101150003E834F835887F9E0EF2EF12CEC0EFD1EF5
:10116000CE010196B7010E94970B8E010F5E1F4FB3
:10117000CE010596B8010E94970BC701B801AE01D8
:10118000475E5F4F0E9420070E94C20AA096E6E0D9
:101190000C94A40CA8E1B0E0E0EDF8E00C94840C11
:1011A00069837A838B839C832D833E834F83588707
:1011B000B9E0EB2EF12CEC0EFD1ECE010196B7012D
:1011C0000E94970B8E010F5E1F4FCE010596B8014E
:1011D0000E94970B2985223008F47EC0398932306D
:1011E00010F4B8017CC08A859A8989278A872430BF
:1011F00011F0223031F4231709F06EC068E972E073
:101200006EC0343039F41D861E861F86188A1C86EF
:101210001B8604C0323021F484E08987B7015FC0A7
:101220002B853C858B899C89281B390B3C872B8718
:10123000ED84FE840F851889AD88BE88CF88D88C50
:10124000EA14FB040C051D0540F4EE0CFF1C001F06
:10125000111F215030403C872B8720E030E040E0D8
:1012600050E080E090E0A0E0B0E460E070E0EA14DC
:10127000FB040C051D0540F0282B392B4A2B5B2B5A
:10128000EA18FB080C091D09B695A795979587954F
:10129000EE0CFF1C001F111F6F5F7F4F6F31710538
:1012A00031F7DA01C9018F779070A070B070803487
:1012B0009105A105B10561F427FD0AC0E114F1040F
:1012C0000105110529F0205C3F4F4F4F5F4F2078FB
:1012D0002D873E874F87588BBE01675F7F4FCB01BD
:1012E0000E94C20A6896EAE00C94A00CA8E1B0E063
:1012F000ECE7F9E00C94880C69837A838B839C83F8
:101300002D833E834F83588789E0E82EF12CEC0E25
:10131000FD1ECE010196B7010E94970B8E010F5E54
:101320001F4FCE010596B8010E94970B8985823028
:1013300040F08989823028F0C701B8010E940F0C63
:1013400001C08FEF6896E6E00C94A40CACE0B0E02E
:10135000ECEAF9E00C948C0C69837A838B839C8390
:10136000CE010196BE016B5F7F4F0E94970B8D816E
:10137000823061F1823050F1843021F48E818823F3
:1013800051F12EC02F81388537FD20C06E812F315D
:1013900031051CF06623F9F023C08EE190E0821B3A
:1013A000930B29853A854B855C8504C056954795F6
:1013B000379527958A95D2F76623B1F050954095D9
:1013C000309521953F4F4F4F5F4F0EC020E030E0EA
:1013D00040E050E009C02FEF3FEF4FEF5FE704C060
:1013E00020E030E040E050E8B901CA012C96E2E08C
:1013F0000C94A80CA8E0B0E0E0E0FAE00C94840CB7
:101400007B018C01611571058105910519F482E05C
:10141000898360C083E089838EE1C82ED12CDC8271
:10142000CB82ED82FE820F831887C801B7010E942C
:10143000730AFC013197F7FF3BC0222733272E1B8D
:101440003F0B57016801022E04C0D694C794B7948D
:10145000A7940A94D2F740E050E060E070E081E0A9
:1014600090E0A0E0B0E004C0880F991FAA1FBB1F46
:101470002A95D2F70197A109B1098E219F21A023B6
:10148000B1230097A105B10521F041E050E060E0F3
:1014900070E04A295B296C297D294D835E836F8327
:1014A00078878EE190E08E1B9F0B9C838B8312C00C
:1014B000309781F00E2E04C0EE0CFF1C001F111F90
:1014C0000A94D2F7ED82FE820F831887CE1ADF0AC4
:1014D000DC82CB821A82CE0101960E94C20A289633
:1014E000EAE00C94A00CEF92FF920F931F937B0104
:1014F0008C0180E0E81680E0F80681E0080780E0D3
:10150000180788F48FEFE816F1040105110531F092
:1015100028F088E090E0A0E0B0E017C080E090E024
:10152000A0E0B0E012C080E0E81680E0F80680E0BD
:10153000080781E0180728F088E190E0A0E0B0E01B
:1015400004C080E190E0A0E0B0E020E230E040E0C4
:1015500050E0281B390B4A0B5B0B04C0169507950E
:10156000F794E7948A95D2F7F701E056FD4F808112
:10157000281B310941095109C9011F910F91FF90A1
:10158000EF900895DF92EF92FF920F931F93FC016B
:10159000E480F58006811781D1808081823048F413
:1015A00080E090E0A0E1B0E0E82AF92A0A2B1B2BAA
:1015B000A5C0843009F49FC0823021F4EE24FF24BA
:1015C000870105C0E114F1040105110519F4E0E0FB
:1015D000F0E096C0628173819FEF623879070CF06A
:1015E0005BC022E83FEF261B370B2A3131052CF078
:1015F00020E030E040E050E02AC0B801A701022E10
:1016000004C076956795579547950A94D2F781E07F
:1016100090E0A0E0B0E004C0880F991FAA1FBB1F94
:101620002A95D2F70197A109B1098E219F21A02304
:10163000B1230097A105B10521F081E090E0A0E081
:10164000B0E09A01AB01282B392B4A2B5B2BDA0136
:10165000C9018F779070A070B07080349105A1059A
:10166000B10539F427FF09C0205C3F4F4F4F5F4F52
:1016700004C0215C3F4F4F4F5F4FE0E0F0E020306F
:10168000A0E03A07A0E04A07A0E45A0710F0E1E022
:10169000F0E079018A0127C06038710564F5FB012B
:1016A000E158FF4FD801C7018F779070A070B070DC
:1016B00080349105A105B10539F4E7FE0DC080E441
:1016C00090E0A0E0B0E004C08FE390E0A0E0B0E0E4
:1016D000E80EF91E0A1F1B1F17FF05C01695079578
:1016E000F794E794319687E016950795F794E79479
:1016F0008A95D1F705C0EE24FF248701EFEFF0E0D3
:101700006E2F679566276795902F9F77D794DD2476
:10171000D7948E2F8695492F462B582F5D29B701D8
:10172000CA011F910F91FF90EF90DF900895FC0187
:10173000DB01408151812281622F6F7770E0221F8F
:101740002227221F9381892F880F822B282F30E098
:10175000991F9927991F11969C931197211531056F
:10176000A9F5411551056105710511F482E037C0F5
:1017700082E89FEF13969C938E9312979A01AB0188
:1017800067E0220F331F441F551F6A95D1F783E08E
:101790008C930DC0220F331F441F551F12968D913D
:1017A0009C911397019713969C938E9312972030D8
:1017B00080E0380780E0480780E4580758F3149623
:1017C0002D933D934D935C93179708952F3F3105CB
:1017D00079F4411551056105710519F484E08C9384
:1017E000089564FF03C081E08C9312C01C9210C066
:1017F0002F57304013963C932E93129783E08C938F
:1018000087E0440F551F661F771F8A95D1F77064D4
:1018100014964D935D936D937C93179708951F9342
:10182000DC01FB019C91923008F447C0808182303A
:1018300008F443C0943051F411961C91843099F50A
:101840008181682F70E0611B71093FC0843021F0F5
:10185000923031F48230B9F18181882389F12DC031
:1018600011961C9111978230F1F081811817D9F4EB
:1018700012962D913C911397828193818217930741
:1018800094F028173907BCF014968D919D910D9016
:10189000BC91A02D248135814681578128173907B5
:1018A0004A075B0718F4112341F00AC08217930717
:1018B000A407B50740F4112319F061E070E005C0FA
:1018C0006FEF7FEF02C060E070E0CB011F910895E1
:1018D000AA1BBB1B51E107C0AA1FBB1FA617B70756
:1018E00010F0A61BB70B881F991F5A95A9F7809572
:1018F0009095BC01CD0108952F923F924F925F9237
:101900006F927F928F929F92AF92BF92CF92DF920F
:10191000EF92FF920F931F93CF93DF93CDB7DEB774
:10192000CA1BDB0B0FB6F894DEBF0FBECDBF1994F8
:101930002A88398848885F846E847D848C849B845F
:10194000AA84B984C884DF80EE80FD800C811B816D
:10195000AA81B981CE0FD11D0FB6F894DEBF0FBE9C
:0A196000CDBFED010895F894FFCF0C
:10196A00426F7468205369646520446574656374C2
:10197A0020004C6566742048616E6420466F756E5F
:10198A006420005269676874205761792045786934
:10199A0073742000110011001100110011001100D0
:1019AA00130013001100110011001100110014009E
:1019BA00140011001100110011001100130013008E
:1019CA00110011001100110011001400140011007F
:1019DA001100110011001100130013001100110071
:1019EA00110011001100140014001100110011005F
:1019FA00110011001900150000000000000000008D
:101A0A00000102020303030304040404040404049B
:101A1A00050505050505050505050505050505056C
:101A2A00060606060606060606060606060606064C
:101A3A00060606060606060606060606060606063C
:101A4A00070707070707070707070707070707071C
:101A5A00070707070707070707070707070707070C
:101A6A0007070707070707070707070707070707FC
:101A7A0007070707070707070707070707070707EC
:101A8A0008080808080808080808080808080808CC
:101A9A0008080808080808080808080808080808BC
:101AAA0008080808080808080808080808080808AC
:101ABA00080808080808080808080808080808089C
:101ACA00080808080808080808080808080808088C
:101ADA00080808080808080808080808080808087C
:101AEA00080808080808080808080808080808086C
:101AFA00080808080808080808080808080808085C
:00000001FF
